{
  "contractName": "Box",
  "abi": [
    {
      "anonymous": false,
      "inputs": [
        {
          "indexed": true,
          "internalType": "address",
          "name": "owner",
          "type": "address"
        },
        {
          "indexed": true,
          "internalType": "address",
          "name": "spender",
          "type": "address"
        },
        {
          "indexed": false,
          "internalType": "uint256",
          "name": "value",
          "type": "uint256"
        }
      ],
      "name": "Approval",
      "type": "event"
    },
    {
      "anonymous": false,
      "inputs": [
        {
          "indexed": false,
          "internalType": "bool",
          "name": "enableTax",
          "type": "bool"
        }
      ],
      "name": "FeeEnabled",
      "type": "event"
    },
    {
      "anonymous": false,
      "inputs": [
        {
          "indexed": true,
          "internalType": "address",
          "name": "previousOwner",
          "type": "address"
        },
        {
          "indexed": true,
          "internalType": "address",
          "name": "newOwner",
          "type": "address"
        }
      ],
      "name": "OwnershipTransferred",
      "type": "event"
    },
    {
      "anonymous": false,
      "inputs": [
        {
          "indexed": false,
          "internalType": "address",
          "name": "account",
          "type": "address"
        }
      ],
      "name": "Paused",
      "type": "event"
    },
    {
      "anonymous": false,
      "inputs": [
        {
          "indexed": false,
          "internalType": "uint256",
          "name": "burnFeePercent",
          "type": "uint256"
        }
      ],
      "name": "SetBurnFeePercent",
      "type": "event"
    },
    {
      "anonymous": false,
      "inputs": [
        {
          "indexed": false,
          "internalType": "uint256",
          "name": "CharityFeePercent",
          "type": "uint256"
        }
      ],
      "name": "SetCharityFeePercent",
      "type": "event"
    },
    {
      "anonymous": false,
      "inputs": [
        {
          "indexed": false,
          "internalType": "uint256",
          "name": "developerFeePercent",
          "type": "uint256"
        }
      ],
      "name": "SetDeveloperFeePercent",
      "type": "event"
    },
    {
      "anonymous": false,
      "inputs": [
        {
          "indexed": false,
          "internalType": "uint256",
          "name": "liquidityFeePercent",
          "type": "uint256"
        }
      ],
      "name": "SetLiquidityFeePercent",
      "type": "event"
    },
    {
      "anonymous": false,
      "inputs": [
        {
          "indexed": false,
          "internalType": "uint256",
          "name": "marketingFeePercent",
          "type": "uint256"
        }
      ],
      "name": "SetMarketingFeePercent",
      "type": "event"
    },
    {
      "anonymous": false,
      "inputs": [
        {
          "indexed": true,
          "internalType": "address",
          "name": "from",
          "type": "address"
        },
        {
          "indexed": true,
          "internalType": "address",
          "name": "to",
          "type": "address"
        },
        {
          "indexed": false,
          "internalType": "uint256",
          "name": "value",
          "type": "uint256"
        }
      ],
      "name": "Transfer",
      "type": "event"
    },
    {
      "anonymous": false,
      "inputs": [
        {
          "indexed": false,
          "internalType": "address",
          "name": "account",
          "type": "address"
        }
      ],
      "name": "Unpaused",
      "type": "event"
    },
    {
      "inputs": [],
      "name": "burnFee",
      "outputs": [
        {
          "internalType": "uint256",
          "name": "",
          "type": "uint256"
        }
      ],
      "stateMutability": "view",
      "type": "function"
    },
    {
      "inputs": [],
      "name": "burnableFeeAmount",
      "outputs": [
        {
          "internalType": "uint256",
          "name": "",
          "type": "uint256"
        }
      ],
      "stateMutability": "view",
      "type": "function"
    },
    {
      "inputs": [],
      "name": "charityFee",
      "outputs": [
        {
          "internalType": "uint256",
          "name": "",
          "type": "uint256"
        }
      ],
      "stateMutability": "view",
      "type": "function"
    },
    {
      "inputs": [],
      "name": "charityWallet",
      "outputs": [
        {
          "internalType": "address",
          "name": "",
          "type": "address"
        }
      ],
      "stateMutability": "view",
      "type": "function"
    },
    {
      "inputs": [],
      "name": "developerFee",
      "outputs": [
        {
          "internalType": "uint256",
          "name": "",
          "type": "uint256"
        }
      ],
      "stateMutability": "view",
      "type": "function"
    },
    {
      "inputs": [],
      "name": "developerWallet",
      "outputs": [
        {
          "internalType": "address",
          "name": "",
          "type": "address"
        }
      ],
      "stateMutability": "view",
      "type": "function"
    },
    {
      "inputs": [],
      "name": "enableFee",
      "outputs": [
        {
          "internalType": "bool",
          "name": "",
          "type": "bool"
        }
      ],
      "stateMutability": "view",
      "type": "function"
    },
    {
      "inputs": [],
      "name": "liquidityFee",
      "outputs": [
        {
          "internalType": "uint256",
          "name": "",
          "type": "uint256"
        }
      ],
      "stateMutability": "view",
      "type": "function"
    },
    {
      "inputs": [],
      "name": "marketingFee",
      "outputs": [
        {
          "internalType": "uint256",
          "name": "",
          "type": "uint256"
        }
      ],
      "stateMutability": "view",
      "type": "function"
    },
    {
      "inputs": [],
      "name": "marketingWallet",
      "outputs": [
        {
          "internalType": "address",
          "name": "",
          "type": "address"
        }
      ],
      "stateMutability": "view",
      "type": "function"
    },
    {
      "inputs": [],
      "name": "maximumCappedSupply",
      "outputs": [
        {
          "internalType": "uint256",
          "name": "",
          "type": "uint256"
        }
      ],
      "stateMutability": "view",
      "type": "function"
    },
    {
      "inputs": [],
      "name": "maximumSwapableLiquidityAmount",
      "outputs": [
        {
          "internalType": "uint256",
          "name": "",
          "type": "uint256"
        }
      ],
      "stateMutability": "view",
      "type": "function"
    },
    {
      "inputs": [],
      "name": "owner",
      "outputs": [
        {
          "internalType": "address",
          "name": "",
          "type": "address"
        }
      ],
      "stateMutability": "view",
      "type": "function"
    },
    {
      "inputs": [],
      "name": "paused",
      "outputs": [
        {
          "internalType": "bool",
          "name": "",
          "type": "bool"
        }
      ],
      "stateMutability": "view",
      "type": "function"
    },
    {
      "inputs": [],
      "name": "renounceOwnership",
      "outputs": [],
      "stateMutability": "nonpayable",
      "type": "function"
    },
    {
      "inputs": [],
      "name": "swapableLiquidityFeeAmount",
      "outputs": [
        {
          "internalType": "uint256",
          "name": "",
          "type": "uint256"
        }
      ],
      "stateMutability": "view",
      "type": "function"
    },
    {
      "inputs": [],
      "name": "totalBurnFeeAmount",
      "outputs": [
        {
          "internalType": "uint256",
          "name": "",
          "type": "uint256"
        }
      ],
      "stateMutability": "view",
      "type": "function"
    },
    {
      "inputs": [],
      "name": "totalCharityFeeAmount",
      "outputs": [
        {
          "internalType": "uint256",
          "name": "",
          "type": "uint256"
        }
      ],
      "stateMutability": "view",
      "type": "function"
    },
    {
      "inputs": [],
      "name": "totalDeveloperFeeAmount",
      "outputs": [
        {
          "internalType": "uint256",
          "name": "",
          "type": "uint256"
        }
      ],
      "stateMutability": "view",
      "type": "function"
    },
    {
      "inputs": [],
      "name": "totalLiquidityFeeAmount",
      "outputs": [
        {
          "internalType": "uint256",
          "name": "",
          "type": "uint256"
        }
      ],
      "stateMutability": "view",
      "type": "function"
    },
    {
      "inputs": [],
      "name": "totalMarketingFeeAmount",
      "outputs": [
        {
          "internalType": "uint256",
          "name": "",
          "type": "uint256"
        }
      ],
      "stateMutability": "view",
      "type": "function"
    },
    {
      "inputs": [
        {
          "internalType": "address",
          "name": "newOwner",
          "type": "address"
        }
      ],
      "name": "transferOwnership",
      "outputs": [],
      "stateMutability": "nonpayable",
      "type": "function"
    },
    {
      "inputs": [],
      "name": "uniswapV2Pair",
      "outputs": [
        {
          "internalType": "address",
          "name": "",
          "type": "address"
        }
      ],
      "stateMutability": "view",
      "type": "function"
    },
    {
      "inputs": [],
      "name": "uniswapV2Router",
      "outputs": [
        {
          "internalType": "contract IUniswapV2Router02",
          "name": "",
          "type": "address"
        }
      ],
      "stateMutability": "view",
      "type": "function"
    },
    {
      "stateMutability": "payable",
      "type": "receive"
    },
    {
      "inputs": [],
      "name": "initialize",
      "outputs": [],
      "stateMutability": "nonpayable",
      "type": "function"
    },
    {
      "inputs": [],
      "name": "name",
      "outputs": [
        {
          "internalType": "string",
          "name": "",
          "type": "string"
        }
      ],
      "stateMutability": "view",
      "type": "function"
    },
    {
      "inputs": [],
      "name": "symbol",
      "outputs": [
        {
          "internalType": "string",
          "name": "",
          "type": "string"
        }
      ],
      "stateMutability": "view",
      "type": "function"
    },
    {
      "inputs": [],
      "name": "decimals",
      "outputs": [
        {
          "internalType": "uint8",
          "name": "",
          "type": "uint8"
        }
      ],
      "stateMutability": "view",
      "type": "function"
    },
    {
      "inputs": [],
      "name": "totalSupply",
      "outputs": [
        {
          "internalType": "uint256",
          "name": "",
          "type": "uint256"
        }
      ],
      "stateMutability": "view",
      "type": "function"
    },
    {
      "inputs": [
        {
          "internalType": "address",
          "name": "account",
          "type": "address"
        }
      ],
      "name": "balanceOf",
      "outputs": [
        {
          "internalType": "uint256",
          "name": "",
          "type": "uint256"
        }
      ],
      "stateMutability": "view",
      "type": "function"
    },
    {
      "inputs": [
        {
          "internalType": "address",
          "name": "to",
          "type": "address"
        },
        {
          "internalType": "uint256",
          "name": "amount",
          "type": "uint256"
        }
      ],
      "name": "transfer",
      "outputs": [
        {
          "internalType": "bool",
          "name": "",
          "type": "bool"
        }
      ],
      "stateMutability": "nonpayable",
      "type": "function"
    },
    {
      "inputs": [
        {
          "internalType": "address",
          "name": "owner",
          "type": "address"
        },
        {
          "internalType": "address",
          "name": "spender",
          "type": "address"
        }
      ],
      "name": "allowance",
      "outputs": [
        {
          "internalType": "uint256",
          "name": "",
          "type": "uint256"
        }
      ],
      "stateMutability": "view",
      "type": "function"
    },
    {
      "inputs": [
        {
          "internalType": "address",
          "name": "spender",
          "type": "address"
        },
        {
          "internalType": "uint256",
          "name": "amount",
          "type": "uint256"
        }
      ],
      "name": "approve",
      "outputs": [
        {
          "internalType": "bool",
          "name": "",
          "type": "bool"
        }
      ],
      "stateMutability": "nonpayable",
      "type": "function"
    },
    {
      "inputs": [
        {
          "internalType": "address",
          "name": "from",
          "type": "address"
        },
        {
          "internalType": "address",
          "name": "to",
          "type": "address"
        },
        {
          "internalType": "uint256",
          "name": "amount",
          "type": "uint256"
        }
      ],
      "name": "transferFrom",
      "outputs": [
        {
          "internalType": "bool",
          "name": "",
          "type": "bool"
        }
      ],
      "stateMutability": "nonpayable",
      "type": "function"
    },
    {
      "inputs": [
        {
          "internalType": "address",
          "name": "spender",
          "type": "address"
        },
        {
          "internalType": "uint256",
          "name": "addedValue",
          "type": "uint256"
        }
      ],
      "name": "increaseAllowance",
      "outputs": [
        {
          "internalType": "bool",
          "name": "",
          "type": "bool"
        }
      ],
      "stateMutability": "nonpayable",
      "type": "function"
    },
    {
      "inputs": [
        {
          "internalType": "address",
          "name": "spender",
          "type": "address"
        },
        {
          "internalType": "uint256",
          "name": "subtractedValue",
          "type": "uint256"
        }
      ],
      "name": "decreaseAllowance",
      "outputs": [
        {
          "internalType": "bool",
          "name": "",
          "type": "bool"
        }
      ],
      "stateMutability": "nonpayable",
      "type": "function"
    },
    {
      "inputs": [
        {
          "internalType": "address",
          "name": "account",
          "type": "address"
        },
        {
          "internalType": "uint256",
          "name": "amount",
          "type": "uint256"
        }
      ],
      "name": "mint",
      "outputs": [],
      "stateMutability": "nonpayable",
      "type": "function"
    },
    {
      "inputs": [
        {
          "internalType": "uint256",
          "name": "amount",
          "type": "uint256"
        }
      ],
      "name": "burn",
      "outputs": [],
      "stateMutability": "nonpayable",
      "type": "function"
    },
    {
      "inputs": [
        {
          "internalType": "uint256",
          "name": "_marketingFee",
          "type": "uint256"
        },
        {
          "internalType": "uint256",
          "name": "_developerFee",
          "type": "uint256"
        },
        {
          "internalType": "uint256",
          "name": "_burnFee",
          "type": "uint256"
        },
        {
          "internalType": "uint256",
          "name": "_liquidityFee",
          "type": "uint256"
        },
        {
          "internalType": "uint256",
          "name": "_charityFee",
          "type": "uint256"
        }
      ],
      "name": "setTaxFeePercent",
      "outputs": [],
      "stateMutability": "nonpayable",
      "type": "function"
    },
    {
      "inputs": [
        {
          "internalType": "uint256",
          "name": "_marketingFee",
          "type": "uint256"
        }
      ],
      "name": "setMarketingFee",
      "outputs": [],
      "stateMutability": "nonpayable",
      "type": "function"
    },
    {
      "inputs": [
        {
          "internalType": "uint256",
          "name": "_developerFee",
          "type": "uint256"
        }
      ],
      "name": "setDeveloperFee",
      "outputs": [],
      "stateMutability": "nonpayable",
      "type": "function"
    },
    {
      "inputs": [
        {
          "internalType": "uint256",
          "name": "_burnFee",
          "type": "uint256"
        }
      ],
      "name": "setBurnFee",
      "outputs": [],
      "stateMutability": "nonpayable",
      "type": "function"
    },
    {
      "inputs": [
        {
          "internalType": "uint256",
          "name": "_liquidityFee",
          "type": "uint256"
        }
      ],
      "name": "setLiquidityFee",
      "outputs": [],
      "stateMutability": "nonpayable",
      "type": "function"
    },
    {
      "inputs": [
        {
          "internalType": "uint256",
          "name": "_charityFee",
          "type": "uint256"
        }
      ],
      "name": "setCharityFee",
      "outputs": [],
      "stateMutability": "nonpayable",
      "type": "function"
    },
    {
      "inputs": [
        {
          "internalType": "bool",
          "name": "enableTax",
          "type": "bool"
        }
      ],
      "name": "setEnableFee",
      "outputs": [],
      "stateMutability": "nonpayable",
      "type": "function"
    },
    {
      "inputs": [
        {
          "internalType": "uint256",
          "name": "_maximumSwapableLiquidityAmount",
          "type": "uint256"
        }
      ],
      "name": "setMaximumSwapableAmount",
      "outputs": [],
      "stateMutability": "nonpayable",
      "type": "function"
    }
  ],
  "bytecode": "0x608060405234801561001057600080fd5b506143d1806100206000396000f3fe6080604052600436106102815760003560e01c806375f0a8741161014f578063b42ffb2f116100c1578063eaba9fee1161007a578063eaba9fee14610987578063ecfca899146109b2578063f2fde38b146109dd578063f945882714610a06578063fce589d814610a31578063fe7a842f14610a5c57610288565b8063b42ffb2f14610879578063bca27b16146108a2578063d8e00271146108cd578063d946443b146108f6578063da38412f14610921578063dd62ed3e1461094a57610288565b806395d89b411161011357806395d89b411461075357806398118cb41461077e578063a350daed146107a9578063a457c2d7146107d4578063a9059cbb14610811578063b31a9e191461084e57610288565b806375f0a874146106905780637b208769146106bb5780638129fc1c146106e6578063835ccbff146106fd5780638da5cb5b1461072857610288565b806339509351116101f35780635c975abb116101ac5780635c975abb14610594578063625e764c146105bf5780636b67c4df146105e85780636c3172321461061357806370a082311461063c578063715018a61461067957610288565b8063395093511461048657806340c10f19146104c357806342966c68146104ec57806346e982521461051557806349bd5a5e146105405780634bf2c7c91461056b57610288565b806320c7c5961161024557806320c7c5961461037657806323b872dd1461039f57806330d2091d146103dc578063313ce5671461040757806331c2ad5314610432578063357bf15c1461045d57610288565b806306fdde031461028d578063095ea7b3146102b85780631694505e146102f557806318160ddd14610320578063185870f91461034b57610288565b3661028857005b600080fd5b34801561029957600080fd5b506102a2610a87565b6040516102af919061399d565b60405180910390f35b3480156102c457600080fd5b506102df60048036038101906102da9190613449565b610b19565b6040516102ec9190613967565b60405180910390f35b34801561030157600080fd5b5061030a610b3c565b6040516103179190613982565b60405180910390f35b34801561032c57600080fd5b50610335610b62565b6040516103429190613b9f565b60405180910390f35b34801561035757600080fd5b50610360610b6c565b60405161036d91906138c2565b60405180910390f35b34801561038257600080fd5b5061039d600480360381019061039891906134ae565b610b92565b005b3480156103ab57600080fd5b506103c660048036038101906103c191906133fa565b610c51565b6040516103d39190613967565b60405180910390f35b3480156103e857600080fd5b506103f1610c80565b6040516103fe9190613967565b60405180910390f35b34801561041357600080fd5b5061041c610c93565b6040516104299190613c14565b60405180910390f35b34801561043e57600080fd5b50610447610c9c565b6040516104549190613b9f565b60405180910390f35b34801561046957600080fd5b50610484600480360381019061047f91906134ae565b610ca2565b005b34801561049257600080fd5b506104ad60048036038101906104a89190613449565b610d61565b6040516104ba9190613967565b60405180910390f35b3480156104cf57600080fd5b506104ea60048036038101906104e59190613449565b610d98565b005b3480156104f857600080fd5b50610513600480360381019061050e91906134ae565b610fc7565b005b34801561052157600080fd5b5061052a6112f7565b6040516105379190613b9f565b60405180910390f35b34801561054c57600080fd5b506105556112fd565b60405161056291906138c2565b60405180910390f35b34801561057757600080fd5b50610592600480360381019061058d91906134ae565b611323565b005b3480156105a057600080fd5b506105a96113e2565b6040516105b69190613967565b60405180910390f35b3480156105cb57600080fd5b506105e660048036038101906105e191906134ae565b6113f9565b005b3480156105f457600080fd5b506105fd6114b8565b60405161060a9190613b9f565b60405180910390f35b34801561061f57600080fd5b5061063a600480360381019061063591906134ae565b6114be565b005b34801561064857600080fd5b50610663600480360381019061065e919061336c565b61157d565b6040516106709190613b9f565b60405180910390f35b34801561068557600080fd5b5061068e6115c6565b005b34801561069c57600080fd5b506106a561164e565b6040516106b291906138c2565b60405180910390f35b3480156106c757600080fd5b506106d0611674565b6040516106dd91906138c2565b60405180910390f35b3480156106f257600080fd5b506106fb61169a565b005b34801561070957600080fd5b50610712611cc3565b60405161071f9190613b9f565b60405180910390f35b34801561073457600080fd5b5061073d611cc9565b60405161074a91906138c2565b60405180910390f35b34801561075f57600080fd5b50610768611cf3565b604051610775919061399d565b60405180910390f35b34801561078a57600080fd5b50610793611d85565b6040516107a09190613b9f565b60405180910390f35b3480156107b557600080fd5b506107be611d8b565b6040516107cb9190613b9f565b60405180910390f35b3480156107e057600080fd5b506107fb60048036038101906107f69190613449565b611d91565b6040516108089190613967565b60405180910390f35b34801561081d57600080fd5b5061083860048036038101906108339190613449565b611e08565b6040516108459190613967565b60405180910390f35b34801561085a57600080fd5b50610863611e2b565b6040516108709190613b9f565b60405180910390f35b34801561088557600080fd5b506108a0600480360381019061089b9190613526565b611e31565b005b3480156108ae57600080fd5b506108b7611ed7565b6040516108c49190613b9f565b60405180910390f35b3480156108d957600080fd5b506108f460048036038101906108ef9190613485565b611edd565b005b34801561090257600080fd5b5061090b611fad565b6040516109189190613b9f565b60405180910390f35b34801561092d57600080fd5b50610948600480360381019061094391906134ae565b611fb3565b005b34801561095657600080fd5b50610971600480360381019061096c91906133be565b612039565b60405161097e9190613b9f565b60405180910390f35b34801561099357600080fd5b5061099c6120c0565b6040516109a99190613b9f565b60405180910390f35b3480156109be57600080fd5b506109c76120c6565b6040516109d49190613b9f565b60405180910390f35b3480156109e957600080fd5b50610a0460048036038101906109ff919061336c565b6120cc565b005b348015610a1257600080fd5b50610a1b6121c4565b604051610a289190613b9f565b60405180910390f35b348015610a3d57600080fd5b50610a466121ca565b604051610a539190613b9f565b60405180910390f35b348015610a6857600080fd5b50610a716121d0565b604051610a7e9190613b9f565b60405180910390f35b606060998054610a9690613e57565b80601f0160208091040260200160405190810160405280929190818152602001828054610ac290613e57565b8015610b0f5780601f10610ae457610100808354040283529160200191610b0f565b820191906000526020600020905b815481529060010190602001808311610af257829003601f168201915b5050505050905090565b600080610b246121d6565b9050610b318185856121de565b600191505092915050565b60a560009054906101000a900473ffffffffffffffffffffffffffffffffffffffff1681565b6000609b54905090565b60a860009054906101000a900473ffffffffffffffffffffffffffffffffffffffff1681565b610b9a6121d6565b73ffffffffffffffffffffffffffffffffffffffff16610bb8611cc9565b73ffffffffffffffffffffffffffffffffffffffff1614610c0e576040517f08c379a0000000000000000000000000000000000000000000000000000000008152600401610c0590613a9f565b60405180910390fd5b80609f819055507fcafec6c6f7ac33c8f506524db5237627cd7b6ed6cd3f70ab8c328f28723af905609f54604051610c469190613b9f565b60405180910390a150565b600080610c5c6121d6565b9050610c698582856123a9565b610c74858585612435565b60019150509392505050565b60a460009054906101000a900460ff1681565b60006012905090565b60a05481565b610caa6121d6565b73ffffffffffffffffffffffffffffffffffffffff16610cc8611cc9565b73ffffffffffffffffffffffffffffffffffffffff1614610d1e576040517f08c379a0000000000000000000000000000000000000000000000000000000008152600401610d1590613a9f565b60405180910390fd5b80609e819055507fa080f06a1e9c2a432b1d35cf0a54ebca051cf5dce7433c3d8e94948436f10356609e54604051610d569190613b9f565b60405180910390a150565b600080610d6c6121d6565b9050610d8d818585610d7e8589612039565b610d889190613c84565b6121de565b600191505092915050565b610da06121d6565b73ffffffffffffffffffffffffffffffffffffffff16610dbe611cc9565b73ffffffffffffffffffffffffffffffffffffffff1614610e14576040517f08c379a0000000000000000000000000000000000000000000000000000000008152600401610e0b90613a9f565b60405180910390fd5b600073ffffffffffffffffffffffffffffffffffffffff168273ffffffffffffffffffffffffffffffffffffffff161415610e84576040517f08c379a0000000000000000000000000000000000000000000000000000000008152600401610e7b90613b7f565b60405180910390fd5b609d54609b5482610e959190613c84565b1115610ed6576040517f08c379a0000000000000000000000000000000000000000000000000000000008152600401610ecd90613abf565b60405180910390fd5b610ee2600083836127ea565b80609b6000828254610ef49190613c84565b9250508190555080609760008473ffffffffffffffffffffffffffffffffffffffff1673ffffffffffffffffffffffffffffffffffffffff1681526020019081526020016000206000828254610f4a9190613c84565b925050819055508173ffffffffffffffffffffffffffffffffffffffff16600073ffffffffffffffffffffffffffffffffffffffff167fddf252ad1be2c89b69c2b068fc378daa952ba7f163c4a11628f55a4df523b3ef83604051610faf9190613b9f565b60405180910390a3610fc3600083836127ef565b5050565b610fcf6121d6565b73ffffffffffffffffffffffffffffffffffffffff16610fed611cc9565b73ffffffffffffffffffffffffffffffffffffffff1614611043576040517f08c379a000000000000000000000000000000000000000000000000000000000815260040161103a90613a9f565b60405180910390fd5b6000309050600073ffffffffffffffffffffffffffffffffffffffff168173ffffffffffffffffffffffffffffffffffffffff1614156110b8576040517f08c379a00000000000000000000000000000000000000000000000000000000081526004016110af90613b1f565b60405180910390fd5b60b5548211156110fd576040517f08c379a00000000000000000000000000000000000000000000000000000000081526004016110f4906139bf565b60405180910390fd5b611109816000846127ea565b6000609760008373ffffffffffffffffffffffffffffffffffffffff1673ffffffffffffffffffffffffffffffffffffffff16815260200190815260200160002054905082811015611190576040517f08c379a0000000000000000000000000000000000000000000000000000000008152600401611187906139ff565b60405180910390fd5b828103609760008473ffffffffffffffffffffffffffffffffffffffff1673ffffffffffffffffffffffffffffffffffffffff1681526020019081526020016000208190555082609b60008282546111e89190613d65565b925050819055508260b560008282546112019190613d65565b92505081905550826097600060aa60009054906101000a900473ffffffffffffffffffffffffffffffffffffffff1673ffffffffffffffffffffffffffffffffffffffff1673ffffffffffffffffffffffffffffffffffffffff16815260200190815260200160002060008282546112799190613c84565b92505081905550600073ffffffffffffffffffffffffffffffffffffffff168273ffffffffffffffffffffffffffffffffffffffff167fddf252ad1be2c89b69c2b068fc378daa952ba7f163c4a11628f55a4df523b3ef856040516112de9190613b9f565b60405180910390a36112f2826000856127ef565b505050565b60b05481565b60a660009054906101000a900473ffffffffffffffffffffffffffffffffffffffff1681565b61132b6121d6565b73ffffffffffffffffffffffffffffffffffffffff16611349611cc9565b73ffffffffffffffffffffffffffffffffffffffff161461139f576040517f08c379a000000000000000000000000000000000000000000000000000000000815260040161139690613a9f565b60405180910390fd5b8060a2819055507fa3291a6c40a2edcab7d769ccd1a6765ca575afeb2203a6f4b5760193703cf89e60a2546040516113d79190613b9f565b60405180910390a150565b6000606560009054906101000a900460ff16905090565b6114016121d6565b73ffffffffffffffffffffffffffffffffffffffff1661141f611cc9565b73ffffffffffffffffffffffffffffffffffffffff1614611475576040517f08c379a000000000000000000000000000000000000000000000000000000000815260040161146c90613a9f565b60405180910390fd5b8060a1819055507f1d119ab266e8f5d0a034bbe24b820e3856d15a1da4d0a3c0ae2889658e63674760a1546040516114ad9190613b9f565b60405180910390a150565b60a15481565b6114c66121d6565b73ffffffffffffffffffffffffffffffffffffffff166114e4611cc9565b73ffffffffffffffffffffffffffffffffffffffff161461153a576040517f08c379a000000000000000000000000000000000000000000000000000000000815260040161153190613a9f565b60405180910390fd5b8060a0819055507fca03a242e24ec4dea3e10ecc21d38a15cf42977ba5bf67b83d4b06dc1d7af32360a0546040516115729190613b9f565b60405180910390a150565b6000609760008373ffffffffffffffffffffffffffffffffffffffff1673ffffffffffffffffffffffffffffffffffffffff168152602001908152602001600020549050919050565b6115ce6121d6565b73ffffffffffffffffffffffffffffffffffffffff166115ec611cc9565b73ffffffffffffffffffffffffffffffffffffffff1614611642576040517f08c379a000000000000000000000000000000000000000000000000000000000815260040161163990613a9f565b60405180910390fd5b61164c60006127f4565b565b60a960009054906101000a900473ffffffffffffffffffffffffffffffffffffffff1681565b60a760009054906101000a900473ffffffffffffffffffffffffffffffffffffffff1681565b600060019054906101000a900460ff166116c25760008054906101000a900460ff16156116cb565b6116ca6128ba565b5b61170a576040517f08c379a000000000000000000000000000000000000000000000000000000000815260040161170190613a7f565b60405180910390fd5b60008060019054906101000a900460ff16159050801561175a576001600060016101000a81548160ff02191690831515021790555060016000806101000a81548160ff0219169083151502179055505b6040518060400160405280600581526020017f4f444f4e73000000000000000000000000000000000000000000000000000000815250609990805190602001906117a5929190613260565b506040518060400160405280600581526020017f4f444f734e000000000000000000000000000000000000000000000000000000815250609a90805190602001906117f1929190613260565b506a01a784379d99db42000000609b819055506012609c819055506a0e0fe3d8bb9bc7b1000000609d819055506005609e819055506003609f81905550600360a081905550600360a181905550600260a28190555068056bc75e2d6310000060a381905550737a250d5630b4cf539739df2c5dacb4c659f2488d60a460026101000a81548173ffffffffffffffffffffffffffffffffffffffff021916908373ffffffffffffffffffffffffffffffffffffffff160217905550730bccf8ef0e2ccd889d634b542823dd57840ad23860a760006101000a81548173ffffffffffffffffffffffffffffffffffffffff021916908373ffffffffffffffffffffffffffffffffffffffff160217905550730bccf8ef0e2ccd889d634b542823dd57840ad23860a860006101000a81548173ffffffffffffffffffffffffffffffffffffffff021916908373ffffffffffffffffffffffffffffffffffffffff160217905550730bccf8ef0e2ccd889d634b542823dd57840ad23860a960006101000a81548173ffffffffffffffffffffffffffffffffffffffff021916908373ffffffffffffffffffffffffffffffffffffffff160217905550600060aa60006101000a81548173ffffffffffffffffffffffffffffffffffffffff021916908373ffffffffffffffffffffffffffffffffffffffff160217905550600060a460006101000a81548160ff021916908315150217905550600060a460016101000a81548160ff021916908315150217905550609b5460976000611a316121d6565b73ffffffffffffffffffffffffffffffffffffffff1673ffffffffffffffffffffffffffffffffffffffff16815260200190815260200160002081905550600060a460029054906101000a900473ffffffffffffffffffffffffffffffffffffffff1690508073ffffffffffffffffffffffffffffffffffffffff1663c45a01556040518163ffffffff1660e01b815260040160206040518083038186803b158015611adc57600080fd5b505afa158015611af0573d6000803e3d6000fd5b505050506040513d601f19601f82011682018060405250810190611b149190613395565b73ffffffffffffffffffffffffffffffffffffffff1663c9c65396308373ffffffffffffffffffffffffffffffffffffffff1663ad5c46486040518163ffffffff1660e01b815260040160206040518083038186803b158015611b7657600080fd5b505afa158015611b8a573d6000803e3d6000fd5b505050506040513d601f19601f82011682018060405250810190611bae9190613395565b6040518363ffffffff1660e01b8152600401611bcb9291906138dd565b602060405180830381600087803b158015611be557600080fd5b505af1158015611bf9573d6000803e3d6000fd5b505050506040513d601f19601f82011682018060405250810190611c1d9190613395565b60a660006101000a81548173ffffffffffffffffffffffffffffffffffffffff021916908373ffffffffffffffffffffffffffffffffffffffff1602179055508060a560006101000a81548173ffffffffffffffffffffffffffffffffffffffff021916908373ffffffffffffffffffffffffffffffffffffffff160217905550508015611cc05760008060016101000a81548160ff0219169083151502179055505b50565b60b65481565b6000603360009054906101000a900473ffffffffffffffffffffffffffffffffffffffff16905090565b6060609a8054611d0290613e57565b80601f0160208091040260200160405190810160405280929190818152602001828054611d2e90613e57565b8015611d7b5780601f10611d5057610100808354040283529160200191611d7b565b820191906000526020600020905b815481529060010190602001808311611d5e57829003601f168201915b5050505050905090565b609e5481565b60b55481565b600080611d9c6121d6565b90506000611daa8286612039565b905083811015611def576040517f08c379a0000000000000000000000000000000000000000000000000000000008152600401611de690613b5f565b60405180910390fd5b611dfc82868684036121de565b60019250505092915050565b600080611e136121d6565b9050611e20818585612435565b600191505092915050565b60b25481565b611e396121d6565b73ffffffffffffffffffffffffffffffffffffffff16611e57611cc9565b73ffffffffffffffffffffffffffffffffffffffff1614611ead576040517f08c379a0000000000000000000000000000000000000000000000000000000008152600401611ea490613a9f565b60405180910390fd5b8460a1819055508360a0819055508260a28190555081609e8190555080609f819055505050505050565b60a35481565b611ee56121d6565b73ffffffffffffffffffffffffffffffffffffffff16611f03611cc9565b73ffffffffffffffffffffffffffffffffffffffff1614611f59576040517f08c379a0000000000000000000000000000000000000000000000000000000008152600401611f5090613a9f565b60405180910390fd5b8060a460006101000a81548160ff0219169083151502179055507fe97fa32ceb811a18d1b14115b17ae0034db328b2e2ca987d9922cbf47b03fad681604051611fa29190613967565b60405180910390a150565b60b35481565b611fbb6121d6565b73ffffffffffffffffffffffffffffffffffffffff16611fd9611cc9565b73ffffffffffffffffffffffffffffffffffffffff161461202f576040517f08c379a000000000000000000000000000000000000000000000000000000000815260040161202690613a9f565b60405180910390fd5b8060a38190555050565b6000609860008473ffffffffffffffffffffffffffffffffffffffff1673ffffffffffffffffffffffffffffffffffffffff16815260200190815260200160002060008373ffffffffffffffffffffffffffffffffffffffff1673ffffffffffffffffffffffffffffffffffffffff16815260200190815260200160002054905092915050565b60b45481565b609f5481565b6120d46121d6565b73ffffffffffffffffffffffffffffffffffffffff166120f2611cc9565b73ffffffffffffffffffffffffffffffffffffffff1614612148576040517f08c379a000000000000000000000000000000000000000000000000000000000815260040161213f90613a9f565b60405180910390fd5b600073ffffffffffffffffffffffffffffffffffffffff168173ffffffffffffffffffffffffffffffffffffffff1614156121b8576040517f08c379a00000000000000000000000000000000000000000000000000000000081526004016121af90613a1f565b60405180910390fd5b6121c1816127f4565b50565b60b15481565b60a25481565b609d5481565b600033905090565b600073ffffffffffffffffffffffffffffffffffffffff168373ffffffffffffffffffffffffffffffffffffffff16141561224e576040517f08c379a000000000000000000000000000000000000000000000000000000000815260040161224590613b3f565b60405180910390fd5b600073ffffffffffffffffffffffffffffffffffffffff168273ffffffffffffffffffffffffffffffffffffffff1614156122be576040517f08c379a00000000000000000000000000000000000000000000000000000000081526004016122b590613a3f565b60405180910390fd5b80609860008573ffffffffffffffffffffffffffffffffffffffff1673ffffffffffffffffffffffffffffffffffffffff16815260200190815260200160002060008473ffffffffffffffffffffffffffffffffffffffff1673ffffffffffffffffffffffffffffffffffffffff168152602001908152602001600020819055508173ffffffffffffffffffffffffffffffffffffffff168373ffffffffffffffffffffffffffffffffffffffff167f8c5be1e5ebec7d5bd14f71427d1e84f3dd0314c0f7b2291e5b200ac8c7c3b9258360405161239c9190613b9f565b60405180910390a3505050565b60006123b58484612039565b90507fffffffffffffffffffffffffffffffffffffffffffffffffffffffffffffffff811461242f5781811015612421576040517f08c379a000000000000000000000000000000000000000000000000000000000815260040161241890613a5f565b60405180910390fd5b61242e84848484036121de565b5b50505050565b600073ffffffffffffffffffffffffffffffffffffffff168373ffffffffffffffffffffffffffffffffffffffff1614156124a5576040517f08c379a000000000000000000000000000000000000000000000000000000000815260040161249c906139df565b60405180910390fd5b600073ffffffffffffffffffffffffffffffffffffffff168273ffffffffffffffffffffffffffffffffffffffff161415612515576040517f08c379a000000000000000000000000000000000000000000000000000000000815260040161250c90613aff565b60405180910390fd5b60008111612558576040517f08c379a000000000000000000000000000000000000000000000000000000000815260040161254f90613adf565b60405180910390fd5b60008060a35460b6541015905060a460019054906101000a900460ff161580156125d0575060a660009054906101000a900473ffffffffffffffffffffffffffffffffffffffff1673ffffffffffffffffffffffffffffffffffffffff168573ffffffffffffffffffffffffffffffffffffffff1614155b1561270c57600160a460016101000a81548160ff02191690831515021790555080156126f05760a460009054906101000a900460ff161561264257600060a460006101000a81548160ff021916908315150217905550600160b760006101000a81548160ff0219169083151502179055505b6000609760003073ffffffffffffffffffffffffffffffffffffffff1673ffffffffffffffffffffffffffffffffffffffff168152602001908152602001600020549050600060b554826126969190613d65565b90506126a1816128cb565b60b760009054906101000a900460ff16156126ed57600160a460006101000a81548160ff021916908315150217905550600060b760006101000a81548160ff0219169083151502179055505b50505b600060a460016101000a81548160ff0219169083151502179055505b60a460009054906101000a900460ff1680156127cd575060a660009054906101000a900473ffffffffffffffffffffffffffffffffffffffff1673ffffffffffffffffffffffffffffffffffffffff168573ffffffffffffffffffffffffffffffffffffffff1614806127cc575060a660009054906101000a900473ffffffffffffffffffffffffffffffffffffffff1673ffffffffffffffffffffffffffffffffffffffff168473ffffffffffffffffffffffffffffffffffffffff16145b5b156127d757600191505b6127e38585858561293a565b5050505050565b505050565b505050565b6000603360009054906101000a900473ffffffffffffffffffffffffffffffffffffffff16905081603360006101000a81548173ffffffffffffffffffffffffffffffffffffffff021916908373ffffffffffffffffffffffffffffffffffffffff1602179055508173ffffffffffffffffffffffffffffffffffffffff168173ffffffffffffffffffffffffffffffffffffffff167f8be0079c531659141344cd1fd0a4f28419497f9722a3daafe3b4186f6b6457e060405160405180910390a35050565b60006128c530612db6565b15905090565b60006002826128da9190613cda565b9050600081836128ea9190613d65565b9050600083905060004790506128ff84612dd9565b6000814761290d9190613d65565b9050612919848261309d565b8260b6600082825461292b9190613d65565b92505081905550505050505050565b600115158115151461294f5761294e613191565b5b81609760008673ffffffffffffffffffffffffffffffffffffffff1673ffffffffffffffffffffffffffffffffffffffff168152602001908152602001600020600082825461299e9190613d65565b9250508190555060006103e860a254846129b89190613d0b565b6129c29190613cda565b905060006103e8609f54856129d79190613d0b565b6129e19190613cda565b905060006103e8609e54866129f69190613d0b565b612a009190613cda565b905060006103e860a15487612a159190613d0b565b612a1f9190613cda565b905060006103e860a05488612a349190613d0b565b612a3e9190613cda565b905060008183858789612a519190613c84565b612a5b9190613c84565b612a659190613c84565b612a6f9190613c84565b90508560b46000828254612a839190613c84565b925050819055508360b06000828254612a9c9190613c84565b925050819055508360b66000828254612ab59190613c84565b925050819055508460b16000828254612ace9190613c84565b925050819055508260b36000828254612ae79190613c84565b925050819055508160b26000828254612b009190613c84565b925050819055508560b56000828254612b199190613c84565b92505081905550846097600060a760009054906101000a900473ffffffffffffffffffffffffffffffffffffffff1673ffffffffffffffffffffffffffffffffffffffff1673ffffffffffffffffffffffffffffffffffffffff1681526020019081526020016000206000828254612b919190613c84565b92505081905550826097600060a960009054906101000a900473ffffffffffffffffffffffffffffffffffffffff1673ffffffffffffffffffffffffffffffffffffffff1673ffffffffffffffffffffffffffffffffffffffff1681526020019081526020016000206000828254612c099190613c84565b92505081905550816097600060a860009054906101000a900473ffffffffffffffffffffffffffffffffffffffff1673ffffffffffffffffffffffffffffffffffffffff1673ffffffffffffffffffffffffffffffffffffffff1681526020019081526020016000206000828254612c819190613c84565b9250508190555085609760003073ffffffffffffffffffffffffffffffffffffffff1673ffffffffffffffffffffffffffffffffffffffff1681526020019081526020016000206000828254612cd79190613c84565b9250508190555083609760003073ffffffffffffffffffffffffffffffffffffffff1673ffffffffffffffffffffffffffffffffffffffff1681526020019081526020016000206000828254612d2d9190613c84565b925050819055508088612d409190613d65565b609760008b73ffffffffffffffffffffffffffffffffffffffff1673ffffffffffffffffffffffffffffffffffffffff1681526020019081526020016000206000828254612d8e9190613c84565b925050819055506001151587151514612daa57612da9613231565b5b50505050505050505050565b6000808273ffffffffffffffffffffffffffffffffffffffff163b119050919050565b6000600267ffffffffffffffff811115612e1c577f4e487b7100000000000000000000000000000000000000000000000000000000600052604160045260246000fd5b604051908082528060200260200182016040528015612e4a5781602001602082028036833780820191505090505b5090503081600081518110612e88577f4e487b7100000000000000000000000000000000000000000000000000000000600052603260045260246000fd5b602002602001019073ffffffffffffffffffffffffffffffffffffffff16908173ffffffffffffffffffffffffffffffffffffffff168152505060a560009054906101000a900473ffffffffffffffffffffffffffffffffffffffff1673ffffffffffffffffffffffffffffffffffffffff1663ad5c46486040518163ffffffff1660e01b815260040160206040518083038186803b158015612f2a57600080fd5b505afa158015612f3e573d6000803e3d6000fd5b505050506040513d601f19601f82011682018060405250810190612f629190613395565b81600181518110612f9c577f4e487b7100000000000000000000000000000000000000000000000000000000600052603260045260246000fd5b602002602001019073ffffffffffffffffffffffffffffffffffffffff16908173ffffffffffffffffffffffffffffffffffffffff16815250506130033060a560009054906101000a900473ffffffffffffffffffffffffffffffffffffffff16846121de565b60a560009054906101000a900473ffffffffffffffffffffffffffffffffffffffff1673ffffffffffffffffffffffffffffffffffffffff1663791ac9478360008430426040518663ffffffff1660e01b8152600401613067959493929190613bba565b600060405180830381600087803b15801561308157600080fd5b505af1158015613095573d6000803e3d6000fd5b505050505050565b6130ca3060a560009054906101000a900473ffffffffffffffffffffffffffffffffffffffff16846121de565b60a560009054906101000a900473ffffffffffffffffffffffffffffffffffffffff1673ffffffffffffffffffffffffffffffffffffffff1663f305d719823085600080613116611cc9565b426040518863ffffffff1660e01b815260040161313896959493929190613906565b6060604051808303818588803b15801561315157600080fd5b505af1158015613165573d6000803e3d6000fd5b50505050506040513d601f19601f8201168201806040525081019061318a91906134d7565b5050505050565b6000609f541480156131a55750600060a254145b80156131b357506000609e54145b80156131c15750600060a054145b80156131cf5750600060a154145b156131d95761322f565b609f5460ab819055506000609f8190555060a25460ac81905550600060a281905550609e5460ad819055506000609e8190555060a05460ae81905550600060a08190555060a15460af81905550600060a1819055505b565b60ab54609f8190555060ac5460a28190555060ad54609e8190555060af5460a18190555060ae5460a081905550565b82805461326c90613e57565b90600052602060002090601f01602090048101928261328e57600085556132d5565b82601f106132a757805160ff19168380011785556132d5565b828001600101855582156132d5579182015b828111156132d45782518255916020019190600101906132b9565b5b5090506132e291906132e6565b5090565b5b808211156132ff5760008160009055506001016132e7565b5090565b60008135905061331281614356565b92915050565b60008151905061332781614356565b92915050565b60008135905061333c8161436d565b92915050565b60008135905061335181614384565b92915050565b60008151905061336681614384565b92915050565b60006020828403121561337e57600080fd5b600061338c84828501613303565b91505092915050565b6000602082840312156133a757600080fd5b60006133b584828501613318565b91505092915050565b600080604083850312156133d157600080fd5b60006133df85828601613303565b92505060206133f085828601613303565b9150509250929050565b60008060006060848603121561340f57600080fd5b600061341d86828701613303565b935050602061342e86828701613303565b925050604061343f86828701613342565b9150509250925092565b6000806040838503121561345c57600080fd5b600061346a85828601613303565b925050602061347b85828601613342565b9150509250929050565b60006020828403121561349757600080fd5b60006134a58482850161332d565b91505092915050565b6000602082840312156134c057600080fd5b60006134ce84828501613342565b91505092915050565b6000806000606084860312156134ec57600080fd5b60006134fa86828701613357565b935050602061350b86828701613357565b925050604061351c86828701613357565b9150509250925092565b600080600080600060a0868803121561353e57600080fd5b600061354c88828901613342565b955050602061355d88828901613342565b945050604061356e88828901613342565b935050606061357f88828901613342565b925050608061359088828901613342565b9150509295509295909350565b60006135a983836135b5565b60208301905092915050565b6135be81613d99565b82525050565b6135cd81613d99565b82525050565b60006135de82613c3f565b6135e88185613c62565b93506135f383613c2f565b8060005b8381101561362457815161360b888261359d565b975061361683613c55565b9250506001810190506135f7565b5085935050505092915050565b61363a81613dab565b82525050565b61364981613dee565b82525050565b61365881613e12565b82525050565b600061366982613c4a565b6136738185613c73565b9350613683818560208601613e24565b61368c81613f16565b840191505092915050565b60006136a4602783613c73565b91506136af82613f27565b604082019050919050565b60006136c7602583613c73565b91506136d282613f76565b604082019050919050565b60006136ea602283613c73565b91506136f582613fc5565b604082019050919050565b600061370d602683613c73565b915061371882614014565b604082019050919050565b6000613730602283613c73565b915061373b82614063565b604082019050919050565b6000613753601d83613c73565b915061375e826140b2565b602082019050919050565b6000613776602e83613c73565b9150613781826140db565b604082019050919050565b6000613799602083613c73565b91506137a48261412a565b602082019050919050565b60006137bc603683613c73565b91506137c782614153565b604082019050919050565b60006137df602983613c73565b91506137ea826141a2565b604082019050919050565b6000613802602383613c73565b915061380d826141f1565b604082019050919050565b6000613825602183613c73565b915061383082614240565b604082019050919050565b6000613848602483613c73565b91506138538261428f565b604082019050919050565b600061386b602583613c73565b9150613876826142de565b604082019050919050565b600061388e601f83613c73565b91506138998261432d565b602082019050919050565b6138ad81613dd7565b82525050565b6138bc81613de1565b82525050565b60006020820190506138d760008301846135c4565b92915050565b60006040820190506138f260008301856135c4565b6138ff60208301846135c4565b9392505050565b600060c08201905061391b60008301896135c4565b61392860208301886138a4565b613935604083018761364f565b613942606083018661364f565b61394f60808301856135c4565b61395c60a08301846138a4565b979650505050505050565b600060208201905061397c6000830184613631565b92915050565b60006020820190506139976000830184613640565b92915050565b600060208201905081810360008301526139b7818461365e565b905092915050565b600060208201905081810360008301526139d881613697565b9050919050565b600060208201905081810360008301526139f8816136ba565b9050919050565b60006020820190508181036000830152613a18816136dd565b9050919050565b60006020820190508181036000830152613a3881613700565b9050919050565b60006020820190508181036000830152613a5881613723565b9050919050565b60006020820190508181036000830152613a7881613746565b9050919050565b60006020820190508181036000830152613a9881613769565b9050919050565b60006020820190508181036000830152613ab88161378c565b9050919050565b60006020820190508181036000830152613ad8816137af565b9050919050565b60006020820190508181036000830152613af8816137d2565b9050919050565b60006020820190508181036000830152613b18816137f5565b9050919050565b60006020820190508181036000830152613b3881613818565b9050919050565b60006020820190508181036000830152613b588161383b565b9050919050565b60006020820190508181036000830152613b788161385e565b9050919050565b60006020820190508181036000830152613b9881613881565b9050919050565b6000602082019050613bb460008301846138a4565b92915050565b600060a082019050613bcf60008301886138a4565b613bdc602083018761364f565b8181036040830152613bee81866135d3565b9050613bfd60608301856135c4565b613c0a60808301846138a4565b9695505050505050565b6000602082019050613c2960008301846138b3565b92915050565b6000819050602082019050919050565b600081519050919050565b600081519050919050565b6000602082019050919050565b600082825260208201905092915050565b600082825260208201905092915050565b6000613c8f82613dd7565b9150613c9a83613dd7565b9250827fffffffffffffffffffffffffffffffffffffffffffffffffffffffffffffffff03821115613ccf57613cce613e89565b5b828201905092915050565b6000613ce582613dd7565b9150613cf083613dd7565b925082613d0057613cff613eb8565b5b828204905092915050565b6000613d1682613dd7565b9150613d2183613dd7565b9250817fffffffffffffffffffffffffffffffffffffffffffffffffffffffffffffffff0483118215151615613d5a57613d59613e89565b5b828202905092915050565b6000613d7082613dd7565b9150613d7b83613dd7565b925082821015613d8e57613d8d613e89565b5b828203905092915050565b6000613da482613db7565b9050919050565b60008115159050919050565b600073ffffffffffffffffffffffffffffffffffffffff82169050919050565b6000819050919050565b600060ff82169050919050565b6000613df982613e00565b9050919050565b6000613e0b82613db7565b9050919050565b6000613e1d82613dd7565b9050919050565b60005b83811015613e42578082015181840152602081019050613e27565b83811115613e51576000848401525b50505050565b60006002820490506001821680613e6f57607f821691505b60208210811415613e8357613e82613ee7565b5b50919050565b7f4e487b7100000000000000000000000000000000000000000000000000000000600052601160045260246000fd5b7f4e487b7100000000000000000000000000000000000000000000000000000000600052601260045260246000fd5b7f4e487b7100000000000000000000000000000000000000000000000000000000600052602260045260246000fd5b6000601f19601f8301169050919050565b7f416d6f756e74206d757374206265206c65737320746865206275726e61626c6560008201527f20616d6f756e7400000000000000000000000000000000000000000000000000602082015250565b7f42455032303a207472616e736665722066726f6d20746865207a65726f20616460008201527f6472657373000000000000000000000000000000000000000000000000000000602082015250565b7f45524332303a206275726e20616d6f756e7420657863656564732062616c616e60008201527f6365000000000000000000000000000000000000000000000000000000000000602082015250565b7f4f776e61626c653a206e6577206f776e657220697320746865207a65726f206160008201527f6464726573730000000000000000000000000000000000000000000000000000602082015250565b7f45524332303a20617070726f766520746f20746865207a65726f20616464726560008201527f7373000000000000000000000000000000000000000000000000000000000000602082015250565b7f45524332303a20696e73756666696369656e7420616c6c6f77616e6365000000600082015250565b7f496e697469616c697a61626c653a20636f6e747261637420697320616c72656160008201527f647920696e697469616c697a6564000000000000000000000000000000000000602082015250565b7f4f776e61626c653a2063616c6c6572206973206e6f7420746865206f776e6572600082015250565b7f43757272656e7420537570706c79206d757374206265206c657373207468616e60008201527f206d6178696d756d2063617070656420737570706c7900000000000000000000602082015250565b7f5472616e7366657220616d6f756e74206d75737420626520677265617465722060008201527f7468616e207a65726f0000000000000000000000000000000000000000000000602082015250565b7f42455032303a207472616e7366657220746f20746865207a65726f206164647260008201527f6573730000000000000000000000000000000000000000000000000000000000602082015250565b7f45524332303a206275726e2066726f6d20746865207a65726f2061646472657360008201527f7300000000000000000000000000000000000000000000000000000000000000602082015250565b7f45524332303a20617070726f76652066726f6d20746865207a65726f2061646460008201527f7265737300000000000000000000000000000000000000000000000000000000602082015250565b7f45524332303a2064656372656173656420616c6c6f77616e63652062656c6f7760008201527f207a65726f000000000000000000000000000000000000000000000000000000602082015250565b7f45524332303a206d696e7420746f20746865207a65726f206164647265737300600082015250565b61435f81613d99565b811461436a57600080fd5b50565b61437681613dab565b811461438157600080fd5b50565b61438d81613dd7565b811461439857600080fd5b5056fea26469706673582212202d28e29e0628aab960c777900146df280c154653d425744af95e146e0d3bae6264736f6c63430008040033",
  "immutableReferences": {},
  "source": "// SPDX-License-Identifier: MIT\r\npragma solidity 0.8.4;\r\n\r\nimport \"@openzeppelin/contracts-upgradeable/proxy/utils/Initializable.sol\";\r\nimport \"@openzeppelin/contracts-upgradeable/proxy/utils/UUPSUpgradeable.sol\";\r\nimport \"@openzeppelin/contracts-upgradeable/token/ERC20/IERC20Upgradeable.sol\";\r\nimport \"@openzeppelin/contracts-upgradeable/token/ERC20/extensions/IERC20MetadataUpgradeable.sol\";\r\nimport \"@openzeppelin/contracts-upgradeable/utils/ContextUpgradeable.sol\";\r\nimport \"@openzeppelin/contracts-upgradeable/access/OwnableUpgradeable.sol\";\r\nimport \"@openzeppelin/contracts-upgradeable/security/PausableUpgradeable.sol\";\r\n\r\ninterface IUniswapV2Factory {\r\n    event PairCreated(\r\n        address indexed token0,\r\n        address indexed token1,\r\n        address pair,\r\n        uint256\r\n    );\r\n\r\n    function feeTo() external view returns (address);\r\n\r\n    function feeToSetter() external view returns (address);\r\n\r\n    function getPair(address tokenA, address tokenB)\r\n        external\r\n        view\r\n        returns (address pair);\r\n\r\n    function allPairs(uint256) external view returns (address pair);\r\n\r\n    function allPairsLength() external view returns (uint256);\r\n\r\n    function createPair(address tokenA, address tokenB)\r\n        external\r\n        returns (address pair);\r\n\r\n    function setFeeTo(address) external;\r\n\r\n    function setFeeToSetter(address) external;\r\n}\r\n\r\ninterface IUniswapV2Router01 {\r\n    function factory() external pure returns (address);\r\n\r\n    function WETH() external pure returns (address);\r\n\r\n    function addLiquidity(\r\n        address tokenA,\r\n        address tokenB,\r\n        uint256 amountADesired,\r\n        uint256 amountBDesired,\r\n        uint256 amountAMin,\r\n        uint256 amountBMin,\r\n        address to,\r\n        uint256 deadline\r\n    )\r\n        external\r\n        returns (\r\n            uint256 amountA,\r\n            uint256 amountB,\r\n            uint256 liquidity\r\n        );\r\n\r\n    function addLiquidityETH(\r\n        address token,\r\n        uint256 amountTokenDesired,\r\n        uint256 amountTokenMin,\r\n        uint256 amountETHMin,\r\n        address to,\r\n        uint256 deadline\r\n    )\r\n        external\r\n        payable\r\n        returns (\r\n            uint256 amountToken,\r\n            uint256 amountETH,\r\n            uint256 liquidity\r\n        );\r\n\r\n    function removeLiquidity(\r\n        address tokenA,\r\n        address tokenB,\r\n        uint256 liquidity,\r\n        uint256 amountAMin,\r\n        uint256 amountBMin,\r\n        address to,\r\n        uint256 deadline\r\n    ) external returns (uint256 amountA, uint256 amountB);\r\n\r\n    function removeLiquidityETH(\r\n        address token,\r\n        uint256 liquidity,\r\n        uint256 amountTokenMin,\r\n        uint256 amountETHMin,\r\n        address to,\r\n        uint256 deadline\r\n    ) external returns (uint256 amountToken, uint256 amountETH);\r\n\r\n    function removeLiquidityWithPermit(\r\n        address tokenA,\r\n        address tokenB,\r\n        uint256 liquidity,\r\n        uint256 amountAMin,\r\n        uint256 amountBMin,\r\n        address to,\r\n        uint256 deadline,\r\n        bool approveMax,\r\n        uint8 v,\r\n        bytes32 r,\r\n        bytes32 s\r\n    ) external returns (uint256 amountA, uint256 amountB);\r\n\r\n    function removeLiquidityETHWithPermit(\r\n        address token,\r\n        uint256 liquidity,\r\n        uint256 amountTokenMin,\r\n        uint256 amountETHMin,\r\n        address to,\r\n        uint256 deadline,\r\n        bool approveMax,\r\n        uint8 v,\r\n        bytes32 r,\r\n        bytes32 s\r\n    ) external returns (uint256 amountToken, uint256 amountETH);\r\n\r\n    function swapExactTokensForTokens(\r\n        uint256 amountIn,\r\n        uint256 amountOutMin,\r\n        address[] calldata path,\r\n        address to,\r\n        uint256 deadline\r\n    ) external returns (uint256[] memory amounts);\r\n\r\n    function swapTokensForExactTokens(\r\n        uint256 amountOut,\r\n        uint256 amountInMax,\r\n        address[] calldata path,\r\n        address to,\r\n        uint256 deadline\r\n    ) external returns (uint256[] memory amounts);\r\n\r\n    function swapExactETHForTokens(\r\n        uint256 amountOutMin,\r\n        address[] calldata path,\r\n        address to,\r\n        uint256 deadline\r\n    ) external payable returns (uint256[] memory amounts);\r\n\r\n    function swapTokensForExactETH(\r\n        uint256 amountOut,\r\n        uint256 amountInMax,\r\n        address[] calldata path,\r\n        address to,\r\n        uint256 deadline\r\n    ) external returns (uint256[] memory amounts);\r\n\r\n    function swapExactTokensForETH(\r\n        uint256 amountIn,\r\n        uint256 amountOutMin,\r\n        address[] calldata path,\r\n        address to,\r\n        uint256 deadline\r\n    ) external returns (uint256[] memory amounts);\r\n\r\n    function swapETHForExactTokens(\r\n        uint256 amountOut,\r\n        address[] calldata path,\r\n        address to,\r\n        uint256 deadline\r\n    ) external payable returns (uint256[] memory amounts);\r\n\r\n    function quote(\r\n        uint256 amountA,\r\n        uint256 reserveA,\r\n        uint256 reserveB\r\n    ) external pure returns (uint256 amountB);\r\n\r\n    function getAmountOut(\r\n        uint256 amountIn,\r\n        uint256 reserveIn,\r\n        uint256 reserveOut\r\n    ) external pure returns (uint256 amountOut);\r\n\r\n    function getAmountIn(\r\n        uint256 amountOut,\r\n        uint256 reserveIn,\r\n        uint256 reserveOut\r\n    ) external pure returns (uint256 amountIn);\r\n\r\n    function getAmountsOut(uint256 amountIn, address[] calldata path)\r\n        external\r\n        view\r\n        returns (uint256[] memory amounts);\r\n\r\n    function getAmountsIn(uint256 amountOut, address[] calldata path)\r\n        external\r\n        view\r\n        returns (uint256[] memory amounts);\r\n}\r\n\r\ninterface IUniswapV2Router02 is IUniswapV2Router01 {\r\n    function removeLiquidityETHSupportingFeeOnTransferTokens(\r\n        address token,\r\n        uint256 liquidity,\r\n        uint256 amountTokenMin,\r\n        uint256 amountETHMin,\r\n        address to,\r\n        uint256 deadline\r\n    ) external returns (uint256 amountETH);\r\n\r\n    function removeLiquidityETHWithPermitSupportingFeeOnTransferTokens(\r\n        address token,\r\n        uint256 liquidity,\r\n        uint256 amountTokenMin,\r\n        uint256 amountETHMin,\r\n        address to,\r\n        uint256 deadline,\r\n        bool approveMax,\r\n        uint8 v,\r\n        bytes32 r,\r\n        bytes32 s\r\n    ) external returns (uint256 amountETH);\r\n\r\n    function swapExactTokensForTokensSupportingFeeOnTransferTokens(\r\n        uint256 amountIn,\r\n        uint256 amountOutMin,\r\n        address[] calldata path,\r\n        address to,\r\n        uint256 deadline\r\n    ) external;\r\n\r\n    function swapExactETHForTokensSupportingFeeOnTransferTokens(\r\n        uint256 amountOutMin,\r\n        address[] calldata path,\r\n        address to,\r\n        uint256 deadline\r\n    ) external payable;\r\n\r\n    function swapExactTokensForETHSupportingFeeOnTransferTokens(\r\n        uint256 amountIn,\r\n        uint256 amountOutMin,\r\n        address[] calldata path,\r\n        address to,\r\n        uint256 deadline\r\n    ) external;\r\n}\r\n\r\ncontract Box is\r\n    Initializable,\r\n    ContextUpgradeable,\r\n    IERC20Upgradeable,\r\n    IERC20MetadataUpgradeable,\r\n    OwnableUpgradeable,\r\n    PausableUpgradeable\r\n{\r\n    mapping(address => uint256) private _balances;\r\n\r\n    mapping(address => mapping(address => uint256)) private _allowances;\r\n\r\n    string private _name;\r\n    string private _symbol;\r\n\r\n    uint256 private _currentSupply;\r\n    uint256 private _decimals;\r\n\r\n    uint256 public maximumCappedSupply;\r\n\r\n    uint256 public liquidityFee;\r\n    uint256 public charityFee;\r\n    uint256 public developerFee;\r\n    uint256 public marketingFee;\r\n    uint256 public burnFee;\r\n\r\n    uint256 public maximumSwapableLiquidityAmount;\r\n\r\n    bool public enableFee;\r\n    bool swapLiquidity;\r\n\r\n    address UNISWAPV2ROUTER;\r\n    IUniswapV2Router02 public uniswapV2Router;\r\n    address public uniswapV2Pair;\r\n\r\n    address public charityWallet;\r\n    address public developerWallet;\r\n    address public marketingWallet;\r\n    address private deadAddress;\r\n\r\n    uint256 private previousCharityFee;\r\n    uint256 private previousBurnFee;\r\n    uint256 private previousLiquidityFee;\r\n    uint256 private previousDeveloperFee;\r\n    uint256 private previousMarketingFee;\r\n\r\n    uint256 public totalLiquidityFeeAmount;\r\n    uint256 public totalCharityFeeAmount;\r\n    uint256 public totalDeveloperFeeAmount;\r\n    uint256 public totalMarketingFeeAmount;\r\n    uint256 public totalBurnFeeAmount;\r\n    uint256 public burnableFeeAmount;\r\n    uint256 public swapableLiquidityFeeAmount;\r\n\r\n    event SetDeveloperFeePercent(uint256 developerFeePercent);\r\n    event SetLiquidityFeePercent(uint256 liquidityFeePercent);\r\n    event SetBurnFeePercent(uint256 burnFeePercent);\r\n    event SetCharityFeePercent(uint256 CharityFeePercent);\r\n    event SetMarketingFeePercent(uint256 marketingFeePercent);\r\n    event FeeEnabled(bool enableTax);\r\n\r\n    function initialize() public initializer {\r\n        _name = \"ODONs\";\r\n        _symbol = \"ODOsN\";\r\n        _currentSupply = 2000000 * 10**18;\r\n        _decimals = 18;\r\n\r\n        maximumCappedSupply = 17000000 * 10**18;\r\n\r\n        liquidityFee = 5;\r\n        charityFee = 3;\r\n        developerFee = 3;\r\n        marketingFee = 3;\r\n        burnFee = 2;\r\n\r\n        maximumSwapableLiquidityAmount = 100 * 10**18;\r\n\r\n        UNISWAPV2ROUTER = 0x7a250d5630B4cF539739dF2C5dAcb4c659F2488D;\r\n        charityWallet = 0x0bCcF8ef0e2CcD889d634b542823Dd57840ad238;\r\n        developerWallet = 0x0bCcF8ef0e2CcD889d634b542823Dd57840ad238;\r\n        marketingWallet = 0x0bCcF8ef0e2CcD889d634b542823Dd57840ad238;\r\n        deadAddress = 0x0000000000000000000000000000000000000000;\r\n\r\n        enableFee = false;\r\n        swapLiquidity = false;\r\n\r\n        _balances[_msgSender()] = _currentSupply;\r\n\r\n  \r\n        IUniswapV2Router02 _uniswapV2Router = IUniswapV2Router02(\r\n            UNISWAPV2ROUTER\r\n        );\r\n        // Create a uniswap pair for this new token\r\n        uniswapV2Pair = IUniswapV2Factory(_uniswapV2Router.factory())\r\n            .createPair(address(this), _uniswapV2Router.WETH());\r\n\r\n        // set the rest of the contract variables\r\n        uniswapV2Router = _uniswapV2Router;\r\n    }\r\n\r\n    /**\r\n     * @dev Sets the values for {name} and {symbol}.\r\n     *\r\n     * The default value of {decimals} is 18. To select a different value for\r\n     * {decimals} you should overload it.\r\n     *\r\n     * All two of these values are immutable: they can only be set once during\r\n     * construction.\r\n     */\r\n\r\n    /**\r\n     * @dev Returns the name of the token.\r\n     */\r\n    function name() public view virtual override returns (string memory) {\r\n        return _name;\r\n    }\r\n\r\n    /**\r\n     * @dev Returns the symbol of the token, usually a shorter version of the\r\n     * name.\r\n     */\r\n    function symbol() public view virtual override returns (string memory) {\r\n        return _symbol;\r\n    }\r\n\r\n    /**\r\n     * @dev Returns the number of decimals used to get its user representation.\r\n     * For example, if `decimals` equals `2`, a balance of `505` tokens should\r\n     * be displayed to a user as `5.05` (`505 / 10 ** 2`).\r\n     *\r\n     * Tokens usually opt for a value of 18, imitating the relationship between\r\n     * Ether and Wei. This is the value {ERC20} uses, unless this function is\r\n     * overridden;\r\n     *\r\n     * NOTE: This information is only used for _display_ purposes: it in\r\n     * no way affects any of the arithmetic of the contract, including\r\n     * {IERC20-balanceOf} and {IERC20-transfer}.\r\n     */\r\n    function decimals() public view virtual override returns (uint8) {\r\n        return 18;\r\n    }\r\n\r\n    /**\r\n     * @dev See {IERC20-totalSupply}.\r\n     */\r\n    function totalSupply() public view virtual override returns (uint256) {\r\n        return _currentSupply;\r\n    }\r\n\r\n    /**\r\n     * @dev See {IERC20-balanceOf}.\r\n     */\r\n    function balanceOf(address account)\r\n        public\r\n        view\r\n        virtual\r\n        override\r\n        returns (uint256)\r\n    {\r\n        return _balances[account];\r\n    }\r\n\r\n    /**\r\n     * @dev See {IERC20-transfer}.\r\n     *\r\n     * Requirements:\r\n     *\r\n     * - `to` cannot be the zero address.\r\n     * - the caller must have a balance of at least `amount`.\r\n     */\r\n    function transfer(address to, uint256 amount)\r\n        public\r\n        virtual\r\n        override\r\n        returns (bool)\r\n    {\r\n        address owner = _msgSender();\r\n        _transfer(owner, to, amount);\r\n        return true;\r\n    }\r\n\r\n    /**\r\n     * @dev See {IERC20-allowance}.\r\n     */\r\n    function allowance(address owner, address spender)\r\n        public\r\n        view\r\n        virtual\r\n        override\r\n        returns (uint256)\r\n    {\r\n        return _allowances[owner][spender];\r\n    }\r\n\r\n    /**\r\n     * @dev See {IERC20-approve}.\r\n     *\r\n     * NOTE: If `amount` is the maximum `uint256`, the allowance is not updated on\r\n     * `transferFrom`. This is semantically equivalent to an infinite approval.\r\n     *\r\n     * Requirements:\r\n     *\r\n     * - `spender` cannot be the zero address.\r\n     */\r\n    function approve(address spender, uint256 amount)\r\n        public\r\n        virtual\r\n        override\r\n        returns (bool)\r\n    {\r\n        address owner = _msgSender();\r\n        _approve(owner, spender, amount);\r\n        return true;\r\n    }\r\n\r\n    /**\r\n     * @dev See {IERC20-transferFrom}.\r\n     *\r\n     * Emits an {Approval} event indicating the updated allowance. This is not\r\n     * required by the EIP. See the note at the beginning of {ERC20}.\r\n     *\r\n     * NOTE: Does not update the allowance if the current allowance\r\n     * is the maximum `uint256`.\r\n     *\r\n     * Requirements:\r\n     *\r\n     * - `from` and `to` cannot be the zero address.\r\n     * - `from` must have a balance of at least `amount`.\r\n     * - the caller must have allowance for ``from``'s tokens of at least\r\n     * `amount`.\r\n     */\r\n    function transferFrom(\r\n        address from,\r\n        address to,\r\n        uint256 amount\r\n    ) public virtual override returns (bool) {\r\n        address spender = _msgSender();\r\n        _spendAllowance(from, spender, amount);\r\n        _transfer(from, to, amount);\r\n        return true;\r\n    }\r\n\r\n    /**\r\n     * @dev Atomically increases the allowance granted to `spender` by the caller.\r\n     *\r\n     * This is an alternative to {approve} that can be used as a mitigation for\r\n     * problems described in {IERC20-approve}.\r\n     *\r\n     * Emits an {Approval} event indicating the updated allowance.\r\n     *\r\n     * Requirements:\r\n     *\r\n     * - `spender` cannot be the zero address.\r\n     */\r\n    function increaseAllowance(address spender, uint256 addedValue)\r\n        public\r\n        virtual\r\n        returns (bool)\r\n    {\r\n        address owner = _msgSender();\r\n        _approve(owner, spender, allowance(owner, spender) + addedValue);\r\n        return true;\r\n    }\r\n\r\n    /**\r\n     * @dev Atomically decreases the allowance granted to `spender` by the caller.\r\n     *\r\n     * This is an alternative to {approve} that can be used as a mitigation for\r\n     * problems described in {IERC20-approve}.\r\n     *\r\n     * Emits an {Approval} event indicating the updated allowance.\r\n     *\r\n     * Requirements:\r\n     *\r\n     * - `spender` cannot be the zero address.\r\n     * - `spender` must have allowance for the caller of at least\r\n     * `subtractedValue`.\r\n     */\r\n    function decreaseAllowance(address spender, uint256 subtractedValue)\r\n        public\r\n        virtual\r\n        returns (bool)\r\n    {\r\n        address owner = _msgSender();\r\n        uint256 currentAllowance = allowance(owner, spender);\r\n        require(\r\n            currentAllowance >= subtractedValue,\r\n            \"ERC20: decreased allowance below zero\"\r\n        );\r\n        unchecked {\r\n            _approve(owner, spender, currentAllowance - subtractedValue);\r\n        }\r\n\r\n        return true;\r\n    }\r\n\r\n    /**\r\n     * @dev Moves `amount` of tokens from `sender` to `recipient`.\r\n     *\r\n     * This internal function is equivalent to {transfer}, and can be used to\r\n     * e.g. implement automatic token fees, slashing mechanisms, etc.\r\n     *\r\n     * Emits a {Transfer} event.\r\n     *\r\n     * Requirements:\r\n     *\r\n     * - `from` cannot be the zero address.\r\n     * - `to` cannot be the zero address.\r\n     * - `from` must have a balance of at least `amount`.\r\n     */\r\n\r\n    bool private taxDisableInLiquidity;\r\n\r\n    function _transfer(\r\n        address from,\r\n        address to,\r\n        uint256 amount\r\n    ) internal virtual {\r\n        require(from != address(0), \"BEP20: transfer from the zero address\");\r\n        require(to != address(0), \"BEP20: transfer to the zero address\");\r\n        require(amount > 0, \"Transfer amount must be greater than zero\");\r\n\r\n        //indicates if fee should be deducted from transfer\r\n        bool takeFee = false;\r\n\r\n        bool overMaxTokenBalance = swapableLiquidityFeeAmount >=\r\n            maximumSwapableLiquidityAmount;\r\n        if (!swapLiquidity && from != uniswapV2Pair) {\r\n            swapLiquidity = true;\r\n\r\n            if (overMaxTokenBalance) {\r\n                if (enableFee) {\r\n                    enableFee = false;\r\n                    taxDisableInLiquidity = true;\r\n                }\r\n                uint256 contractSwapTokenBalance = _balances[address(this)];\r\n                uint256 swapToken = contractSwapTokenBalance -\r\n                    burnableFeeAmount;\r\n                swapAndLiquify(swapToken);\r\n                if (taxDisableInLiquidity) {\r\n                    enableFee = true;\r\n                    taxDisableInLiquidity = false;\r\n                }\r\n            }\r\n            swapLiquidity = false;\r\n        }\r\n\r\n        if (enableFee && (from == uniswapV2Pair || to == uniswapV2Pair))\r\n            takeFee = true;\r\n\r\n        //transfer amount, it will take tax, burn and charity amount\r\n        calculateAndDistributeTotalFeeAmount(from, to, amount, takeFee);\r\n    }\r\n\r\n    function swapAndLiquify(uint256 contractTokenBalance) private {\r\n        // split the contract balance into half\r\n        uint256 half = contractTokenBalance / 2;\r\n        uint256 otherHalf = contractTokenBalance - half;\r\n        uint256 previousToken = contractTokenBalance;\r\n        // capture the contract's current ETH balance.\r\n        // this is so that we can capture exactly the amount of ETH that the\r\n        // swap creates, and not make the liquidity event include any ETH that\r\n        // has been manually sent to the contract\r\n        uint256 initialBalance = address(this).balance;\r\n\r\n        // swap tokens for ETH\r\n        swapTokensForEth(half); // <- this breaks the ETH -> HATE swap when swap+liquify is triggered\r\n\r\n        // how much ETH did we just swap into?\r\n        uint256 newBalance = address(this).balance - initialBalance;\r\n\r\n        // add liquidity to uniswap\r\n        addLiquidity(otherHalf, newBalance);\r\n\r\n        swapableLiquidityFeeAmount -= previousToken;\r\n\r\n        //   emit SwapAndLiquify(half, newBalance, otherHalf);\r\n    }\r\n\r\n    function swapTokensForEth(uint256 tokenAmount) private {\r\n        // generate the uniswap pair path of token -> weth\r\n        address[] memory path = new address[](2);\r\n        path[0] = address(this);\r\n        path[1] = uniswapV2Router.WETH();\r\n\r\n        _approve(address(this), address(uniswapV2Router), tokenAmount);\r\n\r\n        // make the swap\r\n        uniswapV2Router.swapExactTokensForETHSupportingFeeOnTransferTokens(\r\n            tokenAmount,\r\n            0, // accept any amount of ETH\r\n            path,\r\n            address(this),\r\n            block.timestamp\r\n        );\r\n    }\r\n\r\n    function addLiquidity(uint256 tokenAmount, uint256 ethAmount) private {\r\n        // approve token transfer to cover all possible scenarios\r\n        _approve(address(this), address(uniswapV2Router), tokenAmount);\r\n\r\n        // add the liquidity\r\n        uniswapV2Router.addLiquidityETH{value: ethAmount}(\r\n            address(this),\r\n            tokenAmount,\r\n            0, // slippage is unavoidable\r\n            0, // slippage is unavoidable\r\n            owner(),\r\n            block.timestamp\r\n        );\r\n    }\r\n\r\n    // calculate and distribute Fee to the respective wallets\r\n    function calculateAndDistributeTotalFeeAmount(\r\n        address from,\r\n        address to,\r\n        uint256 amount,\r\n        bool takeFee\r\n    ) internal {\r\n        if (takeFee != true) removeAllFee();\r\n        _balances[from] -= amount;\r\n        uint256 currentBurnFee = (amount * burnFee) / 1000;\r\n        uint256 currentcharityFee = (amount * charityFee) / 1000;\r\n        uint256 currentLiquidityFee = (amount * liquidityFee) / 1000;\r\n        uint256 currentMarketingFee = (amount * marketingFee) / 1000;\r\n        uint256 currentDeveloperFee = (amount * developerFee) / 1000;\r\n        uint256 totalFee = currentBurnFee +\r\n            currentcharityFee +\r\n            currentLiquidityFee +\r\n            currentMarketingFee +\r\n            currentDeveloperFee;\r\n\r\n        // fee update for each transaction\r\n        totalBurnFeeAmount += currentBurnFee;\r\n        totalLiquidityFeeAmount += currentLiquidityFee;\r\n        swapableLiquidityFeeAmount += currentLiquidityFee;\r\n        totalCharityFeeAmount += currentcharityFee;\r\n        totalMarketingFeeAmount += currentMarketingFee;\r\n        totalDeveloperFeeAmount += currentDeveloperFee;\r\n        burnableFeeAmount += currentBurnFee;\r\n\r\n        _balances[charityWallet] += currentcharityFee;\r\n        _balances[marketingWallet] += currentMarketingFee;\r\n        _balances[developerWallet] += currentDeveloperFee;\r\n        _balances[address(this)] += currentBurnFee;\r\n        _balances[address(this)] += currentLiquidityFee;\r\n\r\n        _balances[to] += amount - totalFee;\r\n\r\n        if (takeFee != true) restoreAllFee();\r\n    }\r\n\r\n    /** @dev Creates `amount` tokens and assigns them to `account`, increasing\r\n     * the total supply.\r\n     *\r\n     * Emits a {Transfer} event with `from` set to the zero address.\r\n     *\r\n     * Requirements:\r\n     *\r\n     * - `account` cannot be the zero address.\r\n     */\r\n\r\n    function mint(address account, uint256 amount) external onlyOwner {\r\n        require(account != address(0), \"ERC20: mint to the zero address\");\r\n        require(\r\n            (amount + _currentSupply) <= maximumCappedSupply,\r\n            \"Current Supply must be less than maximum capped supply\"\r\n        );\r\n\r\n        _beforeTokenTransfer(address(0), account, amount);\r\n\r\n        _currentSupply += amount;\r\n        _balances[account] += amount;\r\n        emit Transfer(address(0), account, amount);\r\n\r\n        _afterTokenTransfer(address(0), account, amount);\r\n    }\r\n\r\n    /**\r\n     * @dev Destroys `amount` tokens from `account`, reducing the\r\n     * total supply.\r\n     *\r\n     * Emits a {Transfer} event with `to` set to the zero address.\r\n     *\r\n     * Requirements:\r\n     *\r\n     * - `account` cannot be the zero address.\r\n     * - `account` must have at least `amount` tokens.\r\n     */\r\n\r\n    function burn(uint256 amount) public onlyOwner {\r\n        address account = address(this);\r\n        require(account != address(0), \"ERC20: burn from the zero address\");\r\n        require(\r\n            amount <= burnableFeeAmount,\r\n            \"Amount must be less the burnable amount\"\r\n        );\r\n\r\n        _beforeTokenTransfer(account, address(0), amount);\r\n\r\n        uint256 accountBalance = _balances[account];\r\n        require(accountBalance >= amount, \"ERC20: burn amount exceeds balance\");\r\n        unchecked {\r\n            _balances[account] = accountBalance - amount;\r\n        }\r\n        _currentSupply -= amount;\r\n\r\n        burnableFeeAmount -= amount;\r\n\r\n        _balances[deadAddress] += amount;\r\n\r\n        emit Transfer(account, address(0), amount);\r\n\r\n        _afterTokenTransfer(account, address(0), amount);\r\n    }\r\n\r\n    /**\r\n     * @dev Sets `amount` as the allowance of `spender` over the `owner` s tokens.\r\n     *\r\n     * This internal function is equivalent to `approve`, and can be used to\r\n     * e.g. set automatic allowances for certain subsystems, etc.\r\n     *\r\n     * Emits an {Approval} event.\r\n     *\r\n     * Requirements:\r\n     *\r\n     * - `owner` cannot be the zero address.\r\n     * - `spender` cannot be the zero address.\r\n     */\r\n\r\n    function _approve(\r\n        address owner,\r\n        address spender,\r\n        uint256 amount\r\n    ) internal virtual {\r\n        require(owner != address(0), \"ERC20: approve from the zero address\");\r\n        require(spender != address(0), \"ERC20: approve to the zero address\");\r\n\r\n        _allowances[owner][spender] = amount;\r\n        emit Approval(owner, spender, amount);\r\n    }\r\n\r\n    /**\r\n     * @dev Updates `owner` s allowance for `spender` based on spent `amount`.\r\n     *\r\n     * Does not update the allowance amount in case of infinite allowance.\r\n     * Revert if not enough allowance is available.\r\n     *\r\n     * Might emit an {Approval} event.\r\n     */\r\n\r\n    function _spendAllowance(\r\n        address owner,\r\n        address spender,\r\n        uint256 amount\r\n    ) internal virtual {\r\n        uint256 currentAllowance = allowance(owner, spender);\r\n        if (currentAllowance != type(uint256).max) {\r\n            require(\r\n                currentAllowance >= amount,\r\n                \"ERC20: insufficient allowance\"\r\n            );\r\n            unchecked {\r\n                _approve(owner, spender, currentAllowance - amount);\r\n            }\r\n        }\r\n    }\r\n\r\n    /**\r\n     * @dev Hook that is called before any transfer of tokens. This includes\r\n     * minting and burning.\r\n     *\r\n     * Calling conditions:\r\n     *\r\n     * - when `from` and `to` are both non-zero, `amount` of ``from``'s tokens\r\n     * will be transferred to `to`.\r\n     * - when `from` is zero, `amount` tokens will be minted for `to`.\r\n     * - when `to` is zero, `amount` of ``from``'s tokens will be burned.\r\n     * - `from` and `to` are never both zero.\r\n     *\r\n     * To learn more about hooks, head to xref:ROOT:extending-contracts.adoc#using-hooks[Using Hooks].\r\n     */\r\n    function _beforeTokenTransfer(\r\n        address from,\r\n        address to,\r\n        uint256 amount\r\n    ) internal virtual {}\r\n\r\n    /**\r\n     * @dev Hook that is called after any transfer of tokens. This includes\r\n     * minting and burning.\r\n     *\r\n     * Calling conditions:\r\n     *\r\n     * - when `from` and `to` are both non-zero, `amount` of ``from``'s tokens\r\n     * has been transferred to `to`.\r\n     * - when `from` is zero, `amount` tokens have been minted for `to`.\r\n     * - when `to` is zero, `amount` of ``from``'s tokens have been burned.\r\n     * - `from` and `to` are never both zero.\r\n     *\r\n     * To learn more about hooks, head to xref:ROOT:extending-contracts.adoc#using-hooks[Using Hooks].\r\n     */\r\n    function _afterTokenTransfer(\r\n        address from,\r\n        address to,\r\n        uint256 amount\r\n    ) internal virtual {}\r\n\r\n    // change the fee percentage to null\r\n    function removeAllFee() internal {\r\n        if (\r\n            charityFee == 0 &&\r\n            burnFee == 0 &&\r\n            liquidityFee == 0 &&\r\n            developerFee == 0 &&\r\n            marketingFee == 0\r\n        ) return;\r\n\r\n        previousCharityFee = charityFee;\r\n        charityFee = 0;\r\n\r\n        previousBurnFee = burnFee;\r\n        burnFee = 0;\r\n\r\n        previousLiquidityFee = liquidityFee;\r\n        liquidityFee = 0;\r\n\r\n        previousDeveloperFee = developerFee;\r\n        developerFee = 0;\r\n\r\n        previousMarketingFee = marketingFee;\r\n        marketingFee = 0;\r\n    }\r\n\r\n    //restore all the previous fee\r\n    function restoreAllFee() internal {\r\n        charityFee = previousCharityFee;\r\n        burnFee = previousBurnFee;\r\n        liquidityFee = previousLiquidityFee;\r\n        marketingFee = previousMarketingFee;\r\n        developerFee = previousDeveloperFee;\r\n    }\r\n\r\n    // set tax fee percent(i.e marketing fee, charityfee,developer fee,burn fee & liquidity fee)\r\n    function setTaxFeePercent(\r\n        uint256 _marketingFee,\r\n        uint256 _developerFee,\r\n        uint256 _burnFee,\r\n        uint256 _liquidityFee,\r\n        uint256 _charityFee\r\n    ) external onlyOwner {\r\n        marketingFee = _marketingFee;\r\n        developerFee = _developerFee;\r\n        burnFee = _burnFee;\r\n        liquidityFee = _liquidityFee;\r\n        charityFee = _charityFee;\r\n    }\r\n\r\n    // update marketing fee percent\r\n    function setMarketingFee(uint256 _marketingFee) external onlyOwner {\r\n        marketingFee = _marketingFee;\r\n        emit SetMarketingFeePercent(marketingFee);\r\n    }\r\n\r\n    // update developer fee percent\r\n    function setDeveloperFee(uint256 _developerFee) external onlyOwner {\r\n        developerFee = _developerFee;\r\n        emit SetDeveloperFeePercent(developerFee);\r\n    }\r\n\r\n    // update burn fee percent\r\n    function setBurnFee(uint256 _burnFee) external onlyOwner {\r\n        burnFee = _burnFee;\r\n        emit SetBurnFeePercent(burnFee);\r\n    }\r\n\r\n    // update liquidity fee percent\r\n    function setLiquidityFee(uint256 _liquidityFee) external onlyOwner {\r\n        liquidityFee = _liquidityFee;\r\n        emit SetLiquidityFeePercent(liquidityFee);\r\n    }\r\n\r\n    //update charity fee percent\r\n    function setCharityFee(uint256 _charityFee) external onlyOwner {\r\n        charityFee = _charityFee;\r\n        emit SetCharityFeePercent(charityFee);\r\n    }\r\n\r\n    // set tax fee enable or disable\r\n    function setEnableFee(bool enableTax) external onlyOwner {\r\n        enableFee = enableTax;\r\n        emit FeeEnabled(enableTax);\r\n    }\r\n\r\n    //will swap once liquidity fee the maximum Swapable Liquidity Amount\r\n    function setMaximumSwapableAmount(uint256 _maximumSwapableLiquidityAmount)\r\n        external\r\n        onlyOwner\r\n    {\r\n        maximumSwapableLiquidityAmount = _maximumSwapableLiquidityAmount;\r\n    }\r\n\r\n    //to recieve BNB from uniswapV2Router when swaping\r\n    receive() external payable {}\r\n}\r\n",
  "sourcePath": "E:\\Hari\\New folder\\contracts\\Box.sol",
  "compiler": {
    "name": "solc",
    "version": "0.8.4+commit.c7e474f2.Emscripten.clang"
  },
  "schemaVersion": "3.4.4",
  "updatedAt": "2022-03-08T05:32:28.229Z",
  "devdoc": {
    "kind": "dev",
    "methods": {
      "allowance(address,address)": {
        "details": "See {IERC20-allowance}."
      },
      "approve(address,uint256)": {
        "details": "See {IERC20-approve}. NOTE: If `amount` is the maximum `uint256`, the allowance is not updated on `transferFrom`. This is semantically equivalent to an infinite approval. Requirements: - `spender` cannot be the zero address."
      },
      "balanceOf(address)": {
        "details": "See {IERC20-balanceOf}."
      },
      "burn(uint256)": {
        "details": "Destroys `amount` tokens from `account`, reducing the total supply. Emits a {Transfer} event with `to` set to the zero address. Requirements: - `account` cannot be the zero address. - `account` must have at least `amount` tokens."
      },
      "decimals()": {
        "details": "Returns the number of decimals used to get its user representation. For example, if `decimals` equals `2`, a balance of `505` tokens should be displayed to a user as `5.05` (`505 / 10 ** 2`). Tokens usually opt for a value of 18, imitating the relationship between Ether and Wei. This is the value {ERC20} uses, unless this function is overridden; NOTE: This information is only used for _display_ purposes: it in no way affects any of the arithmetic of the contract, including {IERC20-balanceOf} and {IERC20-transfer}."
      },
      "decreaseAllowance(address,uint256)": {
        "details": "Atomically decreases the allowance granted to `spender` by the caller. This is an alternative to {approve} that can be used as a mitigation for problems described in {IERC20-approve}. Emits an {Approval} event indicating the updated allowance. Requirements: - `spender` cannot be the zero address. - `spender` must have allowance for the caller of at least `subtractedValue`."
      },
      "increaseAllowance(address,uint256)": {
        "details": "Atomically increases the allowance granted to `spender` by the caller. This is an alternative to {approve} that can be used as a mitigation for problems described in {IERC20-approve}. Emits an {Approval} event indicating the updated allowance. Requirements: - `spender` cannot be the zero address."
      },
      "mint(address,uint256)": {
        "details": "Creates `amount` tokens and assigns them to `account`, increasing the total supply. Emits a {Transfer} event with `from` set to the zero address. Requirements: - `account` cannot be the zero address."
      },
      "name()": {
        "details": "Returns the name of the token."
      },
      "owner()": {
        "details": "Returns the address of the current owner."
      },
      "paused()": {
        "details": "Returns true if the contract is paused, and false otherwise."
      },
      "renounceOwnership()": {
        "details": "Leaves the contract without owner. It will not be possible to call `onlyOwner` functions anymore. Can only be called by the current owner. NOTE: Renouncing ownership will leave the contract without an owner, thereby removing any functionality that is only available to the owner."
      },
      "symbol()": {
        "details": "Returns the symbol of the token, usually a shorter version of the name."
      },
      "totalSupply()": {
        "details": "See {IERC20-totalSupply}."
      },
      "transfer(address,uint256)": {
        "details": "See {IERC20-transfer}. Requirements: - `to` cannot be the zero address. - the caller must have a balance of at least `amount`."
      },
      "transferFrom(address,address,uint256)": {
        "details": "See {IERC20-transferFrom}. Emits an {Approval} event indicating the updated allowance. This is not required by the EIP. See the note at the beginning of {ERC20}. NOTE: Does not update the allowance if the current allowance is the maximum `uint256`. Requirements: - `from` and `to` cannot be the zero address. - `from` must have a balance of at least `amount`. - the caller must have allowance for ``from``'s tokens of at least `amount`."
      },
      "transferOwnership(address)": {
        "details": "Transfers ownership of the contract to a new account (`newOwner`). Can only be called by the current owner."
      }
    },
    "stateVariables": {
      "taxDisableInLiquidity": {
        "details": "Moves `amount` of tokens from `sender` to `recipient`. This internal function is equivalent to {transfer}, and can be used to e.g. implement automatic token fees, slashing mechanisms, etc. Emits a {Transfer} event. Requirements: - `from` cannot be the zero address. - `to` cannot be the zero address. - `from` must have a balance of at least `amount`."
      }
    },
    "version": 1
  },
  "userdoc": {
    "kind": "user",
    "methods": {},
    "version": 1
  }
}